:020000040800F2
:1000000028070020890100088911000881110008D3
:1000100085110008B50200088112000800000000E8
:100020000000000000000000000000009111000826
:10003000B9020008000000008D11000895110008A9
:10004000A3010008A3010008A3010008A301000800
:10005000A3010008A3010008A3010008A3010008F0
:10006000A3010008A3010008A3010008A3010008E0
:10007000A3010008A3010008A3010008A3010008D0
:10008000A3010008A3010008A3010008A3010008C0
:10009000A3010008A3010008A3010008A3010008B0
:1000A000A3010008A3010008A3010008A3010008A0
:1000B000A3010008A3010008A3010008A301000890
:1000C000A3010008A3010008A3010008A301000880
:1000D000A301000865120008A3010008A30100089D
:1000E000A3010008A3010008A301000800F002F822
:1000F00000F03AF80AA090E8000C82448344AAF188
:100100000107DA4501D100F02FF8AFF2090EBAE885
:100110000F0013F0010F18BFFB1A43F0010318473B
:10012000F012000010130000103A24BF78C878C104
:10013000FAD8520724BF30C830C144BF04680C60ED
:10014000704700000023002400250026103A28BF35
:1001500078C1FBD8520728BF30C148BF0B60704739
:100160001FB51FBD10B510BD00F06AF81146FFF7AE
:10017000F7FF01F087F800F088F803B4FFF7F2FF0B
:1001800003BC00F08FF80000094880470948004789
:10019000FEE7FEE7FEE7FEE7FEE7FEE7FEE7FEE737
:1001A000FEE7FEE704480549054A064B7047000094
:1001B0009D110008ED0000082801002028070020FC
:1001C000280300202803002030B505460B462A46A8
:1001D00013F8014B12F8010B08B1A042F8D01CB182
:1001E000002802D06D1CF1E7284630BD4FF0000218
:1001F00000B5134694469646203922BFA0E80C501D
:10020000A0E80C50B1F12001BFF4F7AF090728BFF7
:10021000A0E80C5048BF0CC05DF804EB890028BF73
:1002200040F8042B08BF704748BF20F8022B11F09C
:10023000804F18BF00F8012B704770477047704718
:10024000754600F02BF8AE4605006946534620F08F
:100250000700854618B020B5FFF7A4FFBDE8204091
:100260004FF000064FF000074FF000084FF0000B72
:10027000AC46ACE8C009ACE8C009ACE8C009ACE8E1
:10028000C00921F007018D46704710B50446AFF351
:1002900000802046BDE81040FFF76FBF0048704760
:1002A0001000002001491820ABBEFEE72600020026
:1002B00070470000FEE7000070470000014690F81C
:1002C0002100022813D10868D1E90FC3026822F087
:1002D0000E020260026822F001020260012000FAB0
:1002E00003F2CCF8042081F82100002002E0042071
:1002F00088630120002281F82020704780B590F8A3
:100300002110022923D10268116821F00E01116029
:100310002F211368C4F202018A4240F20401C4F2A0
:10032000020123F00103136015DD3023C4F2020340
:100330009A421CD04423C4F202039A421AD0582392
:10034000C4F202039A421AD14FF480331FE0042111
:100350008163012080BD0823C4F202039A420CD0BD
:100360001C23C4F202039A4209D110230FE04FF478
:1003700080730CE04FF4805309E0012307E001F1A2
:10038000680C4FF08073624508BF4FF480130B6018
:10039000416B4FF48072028401B18847002080BD18
:1003A0002DE9F04F82B041F20042C4F201020E6822
:1003B0000423904208BF0323002E009300F0EC803A
:1003C00040F20C4E40F2004CC4F2010E0022C4F286
:1003D000010C01244FF0000A4FF000093FE0012515
:1003E00002F00C040F27A7402BEA070705FA04F4D4
:1003F0003C4343F826404E68F303DCF8003054BF1A
:1004000023EA080343EA0803CCF80030DCF80430A0
:10041000B40354BF23EA080343EA0803CCF80430CA
:10042000F402DCF8083054BF23EA080343EA080367
:10043000B402CCF80830DEF800304FF0010454BFAD
:1004400023EA080343EA0803CEF800300E680AF1F5
:10045000010A36FA0AF302F1040200F09D8004FA60
:100460000AFB16EA0B08F1D04B684FF6FF75C1F294
:100470001005AB4210DC122B50D8DFE803F0330A32
:1004800041454F4F4F4F4F4F4F4F4F4F4F4F4F489B
:100490004C00D1F80C9041E04FF6FF75C1F22105F8
:1004A000AB420FDC0025C1F21105AB421AD000258A
:1004B000C1F21205AB4215D00025C1F22105AB42B5
:1004C00010D02BE00025C1F22205AB420AD0002556
:1004D000C1F23105AB4205D00025C1F23205AB4275
:1004E0001CD100BF8B6843B1012B14BFC0F814B0FE
:1004F000C0F810B04FF0080910E04FF004090DE00B
:10050000CB6803F1080909E04FF0000906E0CB6869
:1005100003F1040902E0CB6803F10C091346054618
:10052000B8F5807F24BF203B04352E680F279F40FD
:10053000BE4309FA03F333432B60CB79DB067FF527
:1005400085AF41F21804C4F2020423684FEA9A0608
:1005500043F001032360236840F6000403F0010325
:100560000193019BACF57E7353F826B0C4F20104ED
:10057000A0420FD040F60044C4F20104A0423FF470
:100580002EAF41F20004C4F20104009DA04208BF56
:10059000022525E7002523E702B0BDE8F08F000023
:1005A000002A08BF090401617047000040F22010D2
:1005B000C2F200000068704740F2040040F22011CF
:1005C000C2F20000C2F2000100780A68104408601C
:1005D0007047000080B542F20000C4F202000168DA
:1005E00041F010010160032000F08EF80F2000F0B0
:1005F00005F800F02BF8002080BD0000B0B540F2F7
:100600000402C2F2000240F200011278C2F20001BC
:100610004FF47A730968B3FBF2F20446B1FBF2F1CE
:10062000084600F01FFB0F2C4FF001050CD858B9FD
:100630004FF0FF3021460022002500F039F840F24B
:100640000800C2F2000004602846B0BD82B041F24A
:100650001800C4F202000168022241F001010160A9
:10066000016801F0010101910199416841F0805157
:100670004160406800F08050009000980420C4F26F
:100680000100016862F31A61016002B07047000066
:10069000002848BF704700F01F01012202FA01F153
:1006A0004EF200124009CEF2000242F820107047CC
:1006B00010B54EF60C5CCEF2000CDCF80030C3F343
:1006C000022E8EF00704042C28BF0424BEF103037D
:1006D0004FF0FF3E0EFA04F438BF0023A1439940C7
:1006E0000EFA03F39A4300F00F03043B11436344F3
:1006F00009010C3300F16042B0F1FF3FC8BF02F5C1
:100700006443197010BD00004EF60C51CEF200018A
:100710000A684FF6FF031A4060F30A2242F0806035
:1007200040F0FD70086070472DE9F04381B000286B
:1007300000F0858042F20008C4F202080446D8F8AE
:1007400000000D4600F0070088420CD2D8F80000E7
:1007500020F007002843C8F80000D8F8000000F097
:100760000700A8426BD1206841F204098107C4F256
:10077000020917D5410705D5D9F8001041F4E06109
:10078000C9F80010010705D5D9F8001041F46051EF
:10079000C9F80010D9F80010A26821F0F001114347
:1007A000C9F80010C00741D1D8F8000000F00700D8
:1007B000A8420CD9D8F8000020F007002843C8F858
:1007C0000000D8F8000000F00700A84237D12068E8
:1007D000410707D5D9F80010E26821F4E061114320
:1007E000C9F80010000708D5D9F80000216920F4E5
:1007F000605040EAC100C9F80000D9F8002002F0BA
:100800000C00082841F20020C0F27A004ED141F2DB
:10081000FE33C2F38341C0F60003595CD20339D4DE
:1008200040F60010C0F23D0048433FE060680228F7
:1008300009D0012829D159F8041C890307D40120C3
:1008400001B0BDE8F08359F8041C8901F7D5D9F847
:10085000001021F003010843C9F80000FFF7A6FECD
:10086000064641F2883700BFD9F80000616800F001
:100870000C00B0EB810F97D0FFF798FE801BB842B9
:10088000F2D9032001B0BDE8F08359F8041C8907B0
:10089000D5D5DCE7D9F8002041F2E433C2F3404279
:1008A000C0F600039A5C4843B0FBF2F0D9F80010A0
:1008B00041F2E632C1F30311C0F60002515C40F28E
:1008C000000220FA01F140F20800C2F200000068C4
:1008D000C2F200021160FFF791FE002001B0BDE8F6
:1008E000F083000040F2000041F20401C2F2000077
:1008F000C4F202010068096841F2F632C1F3022134
:10090000C0F60002515CC8407047000040F2000091
:1009100041F20401C2F20000C4F202010068096859
:1009200041F2F632C1F3C221C0F60002515CC84068
:10093000704700002DE9F04182B0002800F0D78018
:100940000446007841F20006C007C4F2020644D013
:10095000706800F00C00042817D0706800F00C00DC
:10096000082802D17068C0030FD465682DB1B5F5B1
:10097000A02F10D0B5F5803F11D0306820F4803022
:100980003060306820F480200CE03068800324D58B
:10099000606810BBABE0306840F4802030603068A5
:1009A00040F480303060FFF701FE002D054611D085
:1009B0003068800311D4FFF7F9FD401B6428F7D994
:1009C00016E100BFFFF7F2FD401B64284FF0030063
:1009D00000F28A8030688003F4D42078800718D52C
:1009E000706810F00C0F07D0706800F00C00082839
:1009F00027D17068C00324D43068800702D52069ED
:100A0000012874D13068616920F0F80040EAC10023
:100A10003060207800074FD5A06940B30020C4F2B1
:100A200042200121C0F88014FFF7C0FD054600BF39
:100A3000706A80072DD4FFF7B9FD401B0228F7D953
:100A4000D6E02069002840F20000C4F2422000F005
:100A5000A68001210160FFF7A9FD054630688007E7
:100A6000D0D4FFF7A3FD401B0228F7D9C0E0002037
:100A7000C4F242200021C0F88014FFF797FD05461C
:100A8000706A800718D5FFF791FD401B0228F7D93F
:100A9000AEE040F20000C2F20000006844F6D3511C
:100AA000C1F26201A0FB0101480A019000BF019858
:100AB000411E00280191F9D1207840071BD4E56937
:100AC0008DB1706800F00C00082846D1012D0ED0C1
:100AD0007068216A00F480328A4208D1616A00F4A9
:100AE0007010884203D1002002B0BDE8F0810120DF
:100AF00002B0BDE8F081F06910F0805808D1F069CB
:100B000040F08050F061F06900F080500090009853
:100B100047F20007C4F200073868C0050FD43868F0
:100B200040F480703860FFF741FD05463868C00525
:100B300005D4FFF73BFD401B6428F7D958E0E56872
:100B40001DB1052D3CD0012D3ED0306A20F00100B2
:100B50003062306A20F0040039E00027C4F24227F6
:100B600000203866FFF722FD022D05460CD100BF9C
:100B70003068800154D5FFF719FD401B02284FF063
:100B80000300F5D9B0E700BF30688001ABD5FFF7AF
:100B90000DFD401B02284FF00300F5D9A4E700210A
:100BA0000160FFF703FD0546306880077FF531AF30
:100BB000FFF7FCFC401B02284FF00300F4D993E739
:100BC000306A40F004003062306A40F00100306268
:100BD000FFF7ECFC002D054641F2883714D000BF2A
:100BE000306A800713D4FFF7E1FC401BB842F7D905
:100BF000032002B0BDE8F081FFF7D8FC401BB842EB
:100C00004FF003003FF670AF306A8007F4D4B8F1BC
:100C1000000F7FF454AFF06920F08050F0614EE790
:100C2000206AB0F5803F05D17168A26821F40031D7
:100C3000114371607168626A21F4741110430843B2
:100C4000706001203866FFF7B1FC0446306880010F
:100C50003FF549AFFFF7AAFC001B02284FF0030045
:100C6000F4D941E7411E0020B0EB116F1CBF0120F9
:100C700070474EF21002CEF2000251604EF6235140
:100C8000CEF20001F0230B700721906011607047D5
:100C90007047000070470000B0B582B0016805469B
:100CA0000868CB684C6900F02F02202A03F020026C
:100CB00005D122B1284600F07BFA02B0B0BD5FEA50
:100CC000007C1EBF04F0010E03F4907414EB0E04BC
:100CD00063D12A6B012A05D110F0100218BF13F05E
:100CE000100235D1020622D513F080021FD095F8EC
:100CF0003D0021282AD1A868B0F5805F03D128697A
:100D0000002800F0EC80286A421C2A6200784860C3
:100D1000E88C01380204E88418D1C86820F080000B
:100D2000C860C86840F04000C86002B0B0BD40066E
:100D30000CD513F0400009D0C86820F04000C8600E
:100D4000202085F83D00284600F018FA02B0B0BD1A
:100D50000020019008680190486801900198486956
:100D6000400622D4A88DEA8DEB8D002B1CBF801A83
:100D70005FEA0042EAD0CA6822F49072CA604A6907
:100D800022F001024A61202285F83E2000222A63D7
:100D9000CA6822F01002CA602EE0C10718BF13F41F
:100DA00080712FD1410733D439E0A86B02685268B3
:100DB00093B2002BCAD0AC8DA342C7D2EA85826918
:100DC000202A16D0CA6822F48072CA604A6922F0CA
:100DD00001024A614A6922F040024A61202285F8F4
:100DE0003E2000222A63CA6822F01002CA60FFF780
:100DF00065FAA88DE98D401A81B22846FFF748FFB1
:100E000002B0B0BD296C41F001012964410706D54B
:100E1000BEF1000F03D0296C41F002012964810763
:100E200006D5BEF1000F03D0296C41F004012964FE
:100E3000BCF1000F06D552EA0E0103D0296C41F037
:100E400008012964296C00293FF480AF10F02000CC
:100E500018BF002A02D0284600F0AAF92868416984
:100E60002A6C01F0400102F0080289182BD0C168F9
:100E700021F49071C160416921F001014161296B48
:100E8000012903D1C16821F01001C160202185F83A
:100E90003E1000212963416949061BD5416921F0B3
:100EA00040014161A86BA8B141F2A111C0F6000157
:100EB0004163FFF723FA00283FF448AFA86B416B6A
:100EC000884702B0B0BD2846FFF7E4FE0020286442
:100ED00002B0B0BD2846FFF7DDFE02B0B0BD286A03
:100EE00030F8022B6FF35F224A60286210E700009F
:100EF000002804BF0120704710B5044690F83D005B
:100F000028B9002084F83C00204600F05FF8242037
:100F100084F83D002068D4E90212C36823F400532A
:100F2000C360036923F440531A430261D4E90423E4
:100F30001143C268194341F20C639A431143C160E3
:100F40004169A26921F44071114343F60002C4F2E1
:100F500001029042416102D0FFF7C4FC01E0FFF7BB
:100F6000D5FC6268192148439100B0FBF1F048F2CA
:100F70001F51C5F2EB11A0FB01235A096FF0630367
:100F800002FB0300322303EB0010A0FB0101F0235E
:100F900003EA5113206803EB0212C1F34311114419
:100FA0008160016921F490410161416921F02A01C8
:100FB0004161C16841F40051C160002020212064DA
:100FC00084F83D1084F83E1010BD000070B586B066
:100FD00040F60004C4F20104006804F54051002604
:100FE00088420596CDE90366029601D006B070BD31
:100FF00041F21800C4F20200016802AD41F48041E0
:101000000160016801F4804101910199016841F09A
:10101000040101600068294600F004000190019875
:101020004FF40070029002200390032005902046A8
:10103000FFF7B6F94FF48060CDE902062046294655
:101040000496FFF7ADF9252000210022FFF730FBC1
:101050002520FFF71DFB06B070BD00002DE9F0470D
:10106000044690F83E0020280DD10E4600294FF08E
:1010700001006AD01746002A08BFBDE8F08794F83F
:101080003C00012802D10220BDE8F087012084F84D
:101090003C004FF0000A22201D46C4F840A084F80E
:1010A0003E00C4F830A0FFF781FAA785E785A16864
:1010B0008046B1F5805F07D1206900281CBF30460B
:1010C0005646B146064601E04FF0000984F83CA0C0
:1010D000E08DB0B36F1C0BE02068002640686FF312
:1010E0005F2029F8020BE08D0138E085E08D40B3E8
:1010F00020680068800611D46FB135B927E000BFC1
:10110000016889060AD4002FFAD0FFF74FFAA0EB46
:101110000800A8421BD82068F2E700BF002EDBD0F1
:10112000A068B0F5805F07D008B9206920B12068B9
:10113000406800F07F0001E02068406806F8010B7D
:10114000D1E7202084F83E000020BDE8F087206829
:10115000C16821F4D071C160416921F00101416190
:10116000202084F83D0084F83E00002084F83C00F4
:101170000320BDE8F08700007047000070470000C2
:10118000FEE70000FEE70000FEE7000070470000F9
:101190007047000080B5FFF70FFA80BD7047000070
:1011A00080B5406A0021C185C184FFF773FD80BD11
:1011B00080B582B090F83E1022291ED18268B2F527
:1011C000805F02D10169002940D0816AB2F5805F59
:1011D00007D00AB9026922B10268526802F07F02A0
:1011E00001E0026852680A700121826A114481623A
:1011F000C18D01390A04C18501D002B080BD0168EA
:10120000CA6822F02002CA60CA6822F48072CA60EA
:101210004A6922F001024A61202280F83E20026BD6
:10122000012A1BD100220263CB6823F01003CB609C
:101230000B68DB0605D501920A68019249680191A5
:101240000199818DFFF724FD02B080BD0168826A9B
:1012500049686FF35F2111800221C6E7FFF78CFF19
:1012600002B080BD80B540F2D800C2F20000FFF7A6
:1012700013FD40F27000C2F200000121016080BD48
:10128000FEE7000090B0FFF7A5F906AC2046282144
:10129000FEF7ACFF012006900A904FF4E010002505
:1012A0004FF4803102260F9020460595CDE9035575
:1012B000CDE90155CDE90715CDE90D61FFF73AFB01
:1012C00018B1EFF3108072B6FEE70F20CDE90106EA
:1012D0004FF48060CDE9040501A802210395FFF7D2
:1012E00023FA20B1EFF3108072B600BFFEE74FF093
:1012F000000841F21800CDE90888CDE90688C4F25B
:101300000200016840F6000941F020010160016817
:10131000C4F2010901F02001019101990168002244
:1013200041F0040101600068202100F004000190F8
:10133000019848462024FFF733F90120CDE907083A
:101340000220099006A948460694FFF729F840F2C2
:10135000D80509F54050C2F200054FF416510C2291
:1013600085E803012846C5E90388C5E90528C5F8CD
:101370001C80FFF7BDFD20B1EFF3108072B600BFF7
:10138000FEE740F2700440F2740640F21C17C2F20D
:101390000004C2F200060FF2480AC2F2000700BFC2
:1013A0002868C16841F02001C16020680128FDD192
:1013B000284631461E226423FFF750FE3046514630
:1013C000FEF702FF3860007820214F38B0FA80F035
:1013D00042094846FFF7E4F8C4F80080E0E700BFA0
:1013E0004F4E00000102000000000000000001025A
:1013F00003040607080900000000010203040203B9
:101400000405060708090A0B0C0D0E0F101000004A
:10141000301400080000002010000000280100081F
:1014200040140008100000201807000044010008C4
:101430000024F40001000000100000000000000083
:04000005080000ED02
:00000001FF
