:020000040800F2
:10000000F806002089010008391B0008F11A0008D1
:10001000351B00085D0300084D1B000800000000B0
:10002000000000000000000000000000411B00086C
:1000300061030008000000003D1B0008451B00088C
:10004000A3010008A3010008A3010008A301000800
:10005000A3010008A3010008A3010008A3010008F0
:10006000A3010008A3010008A3010008A3010008E0
:10007000A3010008A3010008A3010008A3010008D0
:10008000A3010008A301000845020008A30100081D
:10009000A3010008A3010008A3010008A3010008B0
:1000A000A3010008A3010008A3010008A3010008A0
:1000B000A3010008A3010008A3010008A301000890
:1000C000A3010008A3010008A3010008A301000880
:1000D000A3010008A3010008A3010008A301000870
:1000E000A3010008A3010008A301000800F002F822
:1000F00000F03AF80AA090E8000C82448344AAF188
:100100000107DA4501D100F02FF8AFF2090EBAE885
:100110000F0013F0010F18BFFB1A43F0010318473B
:100120004C1C00006C1C0000103A24BF78C878C139
:10013000FAD8520724BF30C830C144BF04680C60ED
:10014000704700000023002400250026103A28BF35
:1001500078C1FBD8520728BF30C148BF0B60704739
:100160001FB51FBD10B510BD00F031F81146FFF7E7
:10017000F7FF01F0EDFC00F04FF803B4FFF7F2FFDA
:1001800003BC00F057F800000948804709480047C1
:10019000FEE7FEE7FEE7FEE7FEE7FEE7FEE7FEE737
:1001A000FEE7FEE704480549054A064B7047000094
:1001B000491B0008ED000008F8000020F8060020A8
:1001C000F8020020F802002070477047704775461B
:1001D00000F02CF8AE4605006946534620F00700B3
:1001E000854618B020B5FFF7DDFFBDE820404FF091
:1001F00000064FF000074FF000084FF0000BAC4630
:10020000ACE8C009ACE8C009ACE8C009ACE8C0097A
:1002100021F007018D46704710B50446AFF300800A
:100220002046BDE81040FFF7A8BF00000048704717
:100230001000002001491820ABBEFEE72600020096
:100240007047000040F2C000C2F2000000F062B946
:10025000B0B582B004460020019021688A68D207B8
:100260004FD1886840F00100886040F20800C2F277
:10027000000000684DF68361C4F21B31A0FB010150
:10028000880C01900198A0B1019801380190019863
:1002900078B1019801380190019850B10198013866
:1002A0000190019828B10198013801900198002827
:1002B000EAD100F091FD21688968C9071CD1054683
:1002C00003E000BF8068C0071AD100F085FD411B24
:1002D00020680329F6D38168C907F3D1A06A40F0EA
:1002E0001000A062E06A40F00100E062002084F8A3
:1002F0002400012002B0B0BD002002B0B0BD00BF9C
:10030000002002B0B0BD000080B584B00020019094
:10031000012002900220039040F2C000C2F20000CF
:1003200001A900F027F8002818BF00F01BF804B05E
:1003300080BD000080B584B00120CDE9010002201D
:10034000039040F2C000C2F2000001A900F012F8D0
:10035000002818BF00F006F804B080BDFEE70000DA
:1003600070470000EFF3108072B600BFFEE7000098
:100370007047000010B581B00022009290F8242050
:10038000012A03D10221084601B010BD4B680122A9
:10039000062B80F8242015D8026803EB8303A3F111
:1003A000050E1F23D2F834C003FA0EF40B682CEAB2
:1003B000040C03FA0EF444EA0C045463092B17D915
:1003C00037E000BF02680C2B20D803EB8303A3F1B6
:1003D00023041F23D2F830C003FA04FE0B682CEA72
:1003E0000E0C03FA04F444EA0C041463092B20D81D
:1003F000D2F810C003EB4303072489689C402CEA21
:100400000404994021431161002136E003EB83038A
:10041000A3F141041F23D2F82CC003FA04FE0B6899
:100420002CEA0E0C03FA04F444EA0C04D462092BFF
:10043000DED903EB4304D2F80CC0A4F11E0E07244E
:10044000896804FA0EF42CEA040401FA0EF121433F
:1004500023F00104102CD1600ED142F20841C4F205
:100460000101A1F10804A2420ED0816A41F02001ED
:100470008162012101E000BF0021002280F82420D8
:10048000084601B010BD00BF0A68120230D40A68E5
:10049000102B42F400020A602CD140F20801C2F293
:1004A000000109684DF68362C4F21B32A1FB0212FF
:1004B000910C01EB8101490000910099E1B1009993
:1004C000013900910099C9B1009901390091009951
:1004D000B1B1009901390091009999B100990139A0
:1004E0000091009900294FF00001E8D1C5E700BF55
:1004F0000021C2E70021C0E70021BEE70021BCE7E0
:100500000021BAE70021B8E7704700000068C06C1E
:100510007047000010B5044600684168890644BF72
:1005200001685FEA81710BD44168090644BF016824
:100530005FEA41712AD4416849065BD410BD00BF0F
:10054000A16AC90603D4A16A41F40071A16281685D
:1005500001F46021B1F5602F10D1217B71B94168A0
:1005600021F020014160A06A20F48070A062A06A9E
:10057000C00403D4A06A40F00100A0622046FFF747
:10058000C3FF20686FF012010160CDE7A16AC906C0
:1005900003D4A16A41F40051A162816801F4E041F1
:1005A000B1F5E04F10D1416821F080014160A06AAF
:1005B00020F48050A062A06AC00511D4A06A40F067
:1005C0000100A0620CE000BF4168490508D48168C1
:1005D00001F46021B1F5602F02D1217B0029E2D026
:1005E0002046FFF7C5FE20686FF00C0101604168EE
:1005F0004906A3D50068C00708BF10BDA06A40F433
:100600008030A062204600F0B3F820686FF001014E
:10061000016010BDB0B5002800F0A8800446806AD3
:1006200020B121688868C0070BD114E00020E06287
:1006300084F82400204600F09DF821688868C007EF
:1006400009D0886820F00100886000F0C5FB2168AF
:100650008A68D20726D1A06AC0063AD4A06A41F2BD
:10066000021290430230A062E069D4E9013240EA0C
:10067000030C531EB3FA83F35D091346B2F5807F72
:1006800018BF2B02207D257B01284CEA450030D184
:1006900035B3A56A45F02005A562E56A45F0010578
:1006A000E56226E0054602E08868C007D3D000F086
:1006B00093FB401B21680328F6D38868C007F3D05A
:1006C000A06A40F01000A062E06A40F00100E06221
:1006D000A06AA06A40F01000A0620120B0BD00BF77
:1006E000D4F818C04EF60005CFF6FF7505EB4C3573
:1006F0002B434D68B2F5807F25F4694543EA050335
:100700004B608B684FF2FD75CFF6E17503EA050388
:1007100043EA00038B6001D0012A07D1226900233C
:10072000CFF6F07303EB025201E000BF0022CB6A68
:1007300023F470031A43CA62896840F6FE62CFF65A
:100740001F721140814207D10020E062A16A01229C
:1007500062F30101A162B0BDA06A40F0100020F078
:100760000200A062E06A40F00100E0620120B0BD3A
:100770007047000080B586B0014640F60000C4F224
:100780000100096800F5E05291424FF00001CDE907
:10079000041101D006B080BD41F21801C4F202017B
:1007A0000A6842F400720A600A6802F40072019258
:1007B000019A0A6842F004020A60096801F0040123
:1007C00001910199012102910321039102A900F0F5
:1007D000F9F912200021002200F07CFB122000F029
:1007E00069FB06B080BD0000F0B581B000270D4662
:1007F0000446009700F0F0FA21688A68D20543D4D5
:1008000006464868C00503D4C86A10F4700F45D086
:1008100040F20800C2F200000768022000F096FBD8
:10082000216844F624130A69B7FBF0F0C2F2924340
:100830001A4206D1CA6844F62413C0F292031A423F
:100840005ED00A6942F29243C1F249231A4207D1AB
:10085000CA6842F29243C0F249031A4200F0C080D3
:100860000A6949F24923C0F224031A424FF0FC02FC
:1008700057D1CF681F4208BF5422009B02FB00F7EC
:10088000BB4253D3C3E000BFA06A40F02000A06287
:1008900084F82470012001B0F0BD00BF0868800713
:1008A00000F1B580681C00F0A880FDB908688007D9
:1008B00072D50868800700F1AA80086880076BD5A8
:1008C0000868800700F1A3800868800764D508687D
:1008D000800700F19C80086880075DD50868800764
:1008E000E4D594E00868800700F1918000F074FA84
:1008F000801B2168A842F5D908688007F2D44BE034
:100900000A6942F29243C1F249231A424FF0290286
:1009100007D1CB6842F29247C0F249073B4208BF79
:100920001422009B02FB00F7BB4270D2681C4FD020
:1009300055BB0098B8422FD3009801300090009822
:10094000B84264D20098B84226D300980130009093
:100950000098B8425BD20098B8421DD3009801308D
:1009600000900098B84252D20098B84214D3009830
:10097000013000900098B842DBD348E00098013085
:1009800000900098B84233D200F026FA801BA842AB
:10099000F4D90098B842F1D2A06A40F00400A062F5
:1009A000002084F82400032001B0F0BD009801303D
:1009B00000900098B8422AD2009801300090009828
:1009C000B84224D20098013000900098B8421ED25C
:1009D0000098013000900098B842E7D317E000BFBC
:1009E0005422009B02FB00F7BB429FD30FE000BFE5
:1009F00021680CE00868800709D40868800706D4DD
:100A0000086880075CBF08685FEA8070F2D56FF005
:100A100012000860A06A40F40070A062886800F4C8
:100A20006020B0F5602F01D1207B18B1002001B00B
:100A3000F0BD00BFA06A20F48070A062A06AC0046C
:100A4000F4D4A06A40F00100A062002001B0F0BD23
:100A500010B5044690F82400012804BF022010BD00
:100A6000012084F824002046FFF7F2FB20B100218A
:100A700084F8241010BD00BF42F2044C2068A16A23
:100A8000C4F2010C40F2013291430CF57F7201F582
:100A900080719042A16233D0A16A21F48011A162D9
:100AA0004168490504D5A16A012363F30D31A162B0
:100AB000A16A0023C9044FF0000144BFE16A21F09C
:100AC0000601E1626FF0020184F824300160816860
:100AD00001F46021B1F5602F06D190420AD1DCF813
:100AE000001011F4702F05D0816841F480118160ED
:100AF000002010BD816841F4A0018160002010BD7C
:100B0000DCF8001011F4702FC6D0A16A41F48011F6
:100B1000A162DCF800104905C5D4C9E7B0B50446A8
:100B200090F82400012804BF0220B0BD01212068F4
:100B300084F824108168C90709D0816821F0010177
:100B4000816000F049F921688968C9070ED1214602
:100B500051F8280F41F2011220EA0202002042F06F
:100B600001020A60002184F82410B0BD054602E0AD
:100B70008068C007EBD000F02FF9411B20680329E3
:100B8000F6D38168C907F3D0A06A214640F010006F
:100B9000A06251F82C2F0120E1E70000B0B5044617
:100BA00000F01AF9054640F20000C2F20000007899
:100BB000611C18BF044400BF00F00EF9401BA042A6
:100BC000FAD3B0BD2DE9F04F82B041F20042C4F239
:100BD00001020E680423904208BF0323002E0093F5
:100BE00000F0F68040F20C4E4FF6FF7CC4F2010E8E
:100BF00000220124C1F2100C4FF0000A4FF000094E
:100C000043E000BF012502F00C040F27A7402BEAA8
:100C1000070705FA04F43C4343F82640D1F804B032
:100C200040F20045C4F201055FEACB332B6854BFA4
:100C300023EA080343EA08032B606B685FEA8B34FE
:100C400054BF23EA080343EA08036B605FEACB243E
:100C5000AB6854BF23EA080343EA08035FEA8B2426
:100C6000AB60DEF800304FF0010454BF23EA080304
:100C700043EA0803CEF800300E680AF1010A36FA9A
:100C80000AF302F1040200F0A38004FA0AF816EA5B
:100C9000080FF1D04B68634512DC122B56D8DFE801
:100CA00003F0350B45495555555555555555555531
:100CB0005555554D510000BFD1F80C9046E000BF8E
:100CC0004FF6FF77C1F22107BB420FDC0027C1F2CC
:100CD0001107BB421AD00027C1F21207BB4215D040
:100CE0000027C1F22107BB4210D02FE00027C1F23C
:100CF0002207BB420AD00027C1F23107BB4205D010
:100D00000027C1F23207BB4220D100BF8B684BB134
:100D1000012B14BFC0F81480C0F810804FF00809F0
:100D200014E000BF4FF0040910E000BFCB6803F1EE
:100D300008090BE04FF0000908E000BFCB6803F1A1
:100D4000040903E0CB6803F10C0900BF1346054614
:100D5000BAF1080F24BF203B04352E680F279F40AF
:100D6000BE4309FA03F333432B60CB79DB067FF5EF
:100D700083AF41F21804C4F2020423684FEA9A06D2
:100D800043F001032360236840F6000403F00103ED
:100D90000193019B40F20043C4F20103A3F57E736B
:100DA00053F826B0C4F20104A0420FD040F600442C
:100DB000C4F20104A0423FF425AF41F20004C4F2A2
:100DC0000104009DA04208BF02251CE700251AE788
:100DD00002B0BDE8F08F000040F2F000C2F2000067
:100DE0000068704740F2000040F2F001C2F20000DB
:100DF000C2F2000100780A681044086070470000E1
:100E000080B542F20000C4F20200016841F0100116
:100E10000160032000F08AF80F2000F005F800F0D0
:100E200027F8002080BD000070B540F20006C2F235
:100E3000000640F208013278C2F200014FF47A73E2
:100E40000968B3FBF2F20446B1FBF2F1084600F088
:100E500049FC0F2C4FF0010508D838B94FF0FF308E
:100E600021460022002500F035F87460284670BD48
:100E700082B041F21800C4F202000168022241F07F
:100E800001010160016801F00101019101994168CE
:100E900041F080514160406800F08050009000981F
:100EA0000420C4F20100016862F31A61016002B01B
:100EB00070470000002848BF704700F01F01012262
:100EC00002FA01F14EF200124009CEF2000242F89D
:100ED0002010704710B54EF60C5CCEF2000CDCF81A
:100EE0000030C3F3022E8EF00704042C28BF042424
:100EF000BEF103034FF0FF3E0EFA04F438BF0023A7
:100F0000A14399400EFA03F39A43114300F00F02F4
:100F1000043A624409010C3200F16043B0F1FF3F32
:100F2000C8BF03F56442117010BD00004EF60C51AD
:100F3000CEF200010A684FF6FF031A4060F30A225E
:100F400042F0806040F0FD700860704780B5012875
:100F500018D0022836D0102832D141F20401C4F250
:100F600002010A6851F8040CC00129D5C2F383407C
:100F70002DA3185CD2033DD440F60012C0F23D020E
:100F8000504343E041F20400C4F20200C16940F260
:100F900002320A40B2F5817F04BF4FF4004080BDA9
:100FA00001F44071B1F5407F1CD0B1F5007F07D14D
:100FB000006A49F64041800701EAE07080BD00BF49
:100FC000002080BD00F0A0F941F20401C4F202014A
:100FD00009680222C1F3813102EB4101B0FBF1F05B
:100FE00080BD00BF50F8040C4FF22441800301EA99
:100FF000E07080BD0A6810A3C2F340429A5C41F2DF
:101000000023C0F27A03B3FBF2F2504309684902AD
:1010100048BF80BD4AF6AB214000CAF6AA21A0FB1A
:101020000101480880BD00BF020304050607080946
:101030000A0B0C0D0E0F1010010200002DE9F041FB
:1010400082B00446007841F21C06C007C4F20206D2
:101050004AD0306810F0805808D1306840F0805095
:101060003060306800F080500190019847F200072E
:10107000C4F200073868C00512D4386840F48070A4
:101080003860FFF7A9FE05463868C00508D4FFF7A9
:10109000A3FE401B6428F7D9032002B0BDE8F0810D
:1010A000706810F4407012D0616801F44071884299
:1010B0000DD0706840F24042C4F24222012320F475
:1010C000407113600023C007136071602AD17068FB
:1010D000616820F440700843B8F1000F706003D1DC
:1010E000306820F0805030602068810707D556F8BE
:1010F000181CA26821F44041114346F8181CC00690
:1011000004D4002002B0BDE8F08100BF56F8180CEE
:10111000E16820F48000084346F8180C002002B073
:10112000BDE8F081FFF758FE054641F2883700BF61
:1011300070688007CBD4FFF74FFE401BB8424FF0DA
:101140000300F5D9EBE700002DE9F04381B000285A
:1011500000F0858042F20008C4F202080446D8F884
:1011600000000D4600F0070088420CD2D8F80000BD
:1011700020F007002843C8F80000D8F8000000F06D
:101180000700A8426BD1206841F204098107C4F22C
:10119000020917D5410705D5D9F8001041F4E061DF
:1011A000C9F80010010705D5D9F8001041F46051C5
:1011B000C9F80010D9F80010A26821F0F00111431D
:1011C000C9F80010C00741D1D8F8000000F00700AE
:1011D000A8420CD9D8F8000020F007002843C8F82E
:1011E0000000D8F8000000F00700A84237D12068BE
:1011F000410707D5D9F80010E26821F4E0611143F6
:10120000C9F80010000708D5D9F80000216920F4BA
:10121000605040EAC100C9F80000D9F8002002F08F
:101220000C00082841F20020C0F27A0050D141F6AB
:101230005C53C2F38341C0F60003595CD2033BD434
:1012400040F60010C0F23D00484341E060680228CB
:101250000AD001282AD159F8041C890308D4012096
:1012600001B0BDE8F08300BF59F8041C8901F6D530
:10127000D9F8001021F003010843C9F80000FFF776
:10128000ABFD064641F28837D9F80000616800F0EE
:101290000C00B0EB810F97D0FFF79EFD801BB8428A
:1012A000F2D9032001B0BDE8F08300BF59F8041C57
:1012B0008907D4D5DCE700BFD9F8002041F64253B6
:1012C000C2F34042C0F600039A5C4843B0FBF2F020
:1012D000D9F8001041F64452C1F30311C0F60002E0
:1012E000515C40F2080220FA01F140F20400C2F21F
:1012F00000000068C2F200021160FFF795FD0020B7
:1013000001B0BDE8F083000040F2080041F20401A2
:10131000C2F20000C4F202010068096841F65452AA
:10132000C1F3C221C0F60002515CC8407047000002
:101330002DE9F04182B0002868D00446007841F2DF
:101340000006C007C4F2020625D0706800F00C0049
:1013500004281BD0706800F00C00082802D17068C7
:10136000C00313D46068002800F06881B0F5A02F96
:1013700000F07C81B0F5803F00F07C81306820F483
:1013800080303060306820F4802076E1306880035F
:1013900001D56068D0B32078800718D5706810F048
:1013A0000C0F07D0706800F00C0008286ED1706830
:1013B000C0036BD43068800702D52069012825D18D
:1013C0003068616920F0F80040EAC10030602078A0
:1013D00000071FD42078400732D4E56995B17068C2
:1013E00000F00C00082840F08F80012D0ED07068AE
:1013F000216A00F480328A4208D1616A00F47010D8
:10140000884203D1002002B0BDE8F081012002B083
:10141000BDE8F081A069002862D00020C4F242201B
:101420000121C0F88014FFF7D7FC0546706A8007D9
:1014300000F18C80FFF7D0FC401B0228F6D92AE18E
:10144000F06910F0805808D1F06940F08050F061E8
:10145000F06900F080500090009847F20007C4F255
:1014600000073868C00529D4386840F480703860B7
:10147000FFF7B2FC054600BF3868C0051ED4FFF771
:10148000ABFC401B6428F7D905E100BF20690028A8
:1014900040F20000C4F2422000F08280012101608D
:1014A000FFF79AFC054600BF306880073FF588AF1C
:1014B000FFF792FC401B0228F6D9ECE0E068002818
:1014C00000F08080052800F09780012800F09880C7
:1014D000306A20F001003062306A20F0040092E0AF
:1014E0000020C4F242200021C0F88014FFF774FCF1
:1014F000054600BF706A80077FF56CAFFFF76CFC94
:10150000401B0228F6D9C6E00027C4F2422700207B
:101510003866FFF761FC022D05460BD1306880016B
:1015200040F1BE80FFF758FC401B02284FF003003B
:10153000F4D968E7306880017FF564AFFFF74CFCB1
:10154000401B02284FF00300F4D95CE740F208008A
:10155000C2F20000006844F6D351C1F26201A0FB60
:101560000101480A019000BF00BF0198411E0028F8
:1015700001913FF42FAF00BF0198411E0028019157
:101580003FF428AF00BF0198411E002801913FF4AD
:1015900021AF00BF0198411E00280191E4D119E755
:1015A00000210160FFF718FC054600BF3068800786
:1015B0007FF50DAFFFF710FC401B02284FF0030032
:1015C000F4D920E7306A20F001003062306A20F060
:1015D00004003062FFF700FC054641F2883700BF87
:1015E000306A800720D5FFF7F7FB401BB8424FF069
:1015F0000300F5D907E700BF306A40F0040030620D
:10160000306A40F001003062FFF7E6FB054641F228
:10161000883700BF306A800706D4FFF7DDFB401B28
:10162000B842F7D937E000BFB8F1000F7FF4D5AE6C
:10163000F06920F08050F061CFE600BF306820F400
:1016400080303060306820F480203060FFF7C4FBC9
:10165000054600BF306880037FF59DAEFFF7BCFBF9
:10166000401B64284FF00300F4D9CCE6306840F406
:1016700080203060306840F480303060FFF7ACFB91
:10168000054600BF306880033FF585AEFFF7A4FB39
:10169000401B6428F6D9032002B0BDE8F08100BFEA
:1016A000206AB0F5803F05D17168A26821F400314D
:1016B000114371607168626A21F474111043084328
:1016C000706001203866FFF787FB044630688001B0
:1016D0003FF598AEFFF780FB001B02284FF0030098
:1016E000F4D990E6411E0020B0EB116F1CBF012021
:1016F00070474EF21002CEF2000251604EF62351B6
:10170000CEF20001F0230B7007219060116070474A
:1017100010B590F83C20012A4FF0020233D080F837
:101720003D200268D2F804E0D2F808C00C682EF020
:101730007003234340F2FF74C4F20004A2425360DA
:101740000ADCB2F1804F13D040F20043C4F2000330
:101750009A420DD011E000BF42F60043C4F20103EB
:101760009A4205D040F60003C4F200039A4204D125
:1017700049682CF08003194391600121002280F810
:101780003D1080F83C20104610BD000080B586B0AA
:1017900040F600010068C4F2000100228842049271
:1017A00002D006B080BD00BF41F21800C4F20200B2
:1017B000026842F008020260006800F00800019030
:1017C00001984FF47070029002200390059001F58B
:1017D000823002A9FFF7F6F906B080BD2DE9F0438B
:1017E00090F83C30012B04BF0220BDE8F0834FEAA3
:1017F000B202032A00F2E580DFE802F0023A76B096
:10180000036842F600461A6AC4F2010622F0010299
:101810001A621D6A1A465C6852F818CFB3428E6885
:10182000D1F800E025F0020545EA06050CD1CE68A6
:10183000D1E9057824F4407425F00C0526F004065F
:101840003C43354344EA08042CF0730747EA0E078B
:101850005C609F614F6809695F631D629F6947F023
:1018600008079F619F6927F004079F61A6E000BFFA
:10187000036842F600461A6AC4F2010622F010021A
:101880001A621D6A1A46D3F804C052F8184FB342C0
:101890008E68D1F800E025F0200545EA06150FD145
:1018A000CE68D1E905986FF0400707EA06162CF4D8
:1018B000406725F0C00547EA8907354347EA880CA9
:1018C00024F4E64444EA0E27C3F804C09F614F683D
:1018D00009699F631D629F6947F400679F619F6963
:1018E00027F480679F6168E0036842F600461A6A41
:1018F000C4F2010622F480721A621D6A1A46D3F8F5
:1019000004C052F81CEFB3428E680C6825F40075D1
:1019100045EA06250FD1CE68D1E90598360240F296
:10192000FF47BE432CF4405725F4406547EA0917AA
:10193000354347EA081C2EF073072743C3F804C059
:10194000DF614F680969DF631D62DF6947F00807DF
:10195000DF61DF6927F00407DF612FE0036842F6EB
:1019600000471A6AC4F2010722F480521A621A462A
:10197000D3F820C05D6852F81C4FD1F800E08E68A3
:10198000BB4204D14F6925F4804545EA87152CF404
:10199000005747EA063724F4E64646EA0E265D601D
:1019A000DE614E6809691E641F62DF6947F40067E3
:1019B000DF61DF6927F48067DF610902136819437B
:1019C0001160002180F83C100846BDE8F08300005B
:1019D000002804BF0120704710B5044690F83D0070
:1019E00028B9002084F83C00204600F067F8022067
:1019F00084F83D00206840F2FF730268C4F20003DF
:101A000042F6004C9842C4F2010C15DCB0F1804F54
:101A10001AD040F20041C4F20001884214D098422A
:101A200018DCB0F1804F1DD040F20041C4F200013B
:101A3000884217D01AE000BF604505D040F600018B
:101A4000C4F200018842EAD1A16822F070020A4380
:101A50009842E6DD604505D040F60001C4F2000181
:101A6000884203D1216922F440720A43A36922F01B
:101A70008001D4F804E0E268194360450160C26265
:101A8000C0F828E002D16169CCF830100121416131
:101A9000002084F8461084F83E1084F83F1084F843
:101AA000401084F8411084F8421084F8431084F800
:101AB000441084F8451084F83D1010BD81B00068D2
:101AC00040F60001C4F20001884201D001B0704725
:101AD00041F21C00C4F20200016841F004010160FF
:101AE000006800F004000090009801B0704700000A
:101AF000FEE7000080B540F2C00042F2004EC2F2A4
:101B00000000C4F2010E4FF4807C012300224FF448
:101B1000602103730275C161C0E900E2C0F808C02A
:101B20000361FEF777FD002808BF80BDBDE8804057
:101B3000FEF718BCFEE70000FEE70000704700005B
:101B400070470000FFF74EB970470000FEE7000045
:101B500094B0FFF755F900240120CDE90F44CDE9F9
:101B60000D440A904FF480310E9002250AA8039488
:101B7000CDE90144CDE90B14CDE911511394FFF7E0
:101B8000D7FB28B1EFF3108072B600BFFEE700BFAD
:101B90000F20CDE904054FF48060CDE9070404A8C7
:101BA00000210694FFF7D0FA20B1EFF3108072B64F
:101BB000FEE700BF02200090002468460294FFF771
:101BC0003DFA28B1EFF3108072B600BFFEE700BF08
:101BD00041F21800C4F20200016840F2700541F0C1
:101BE000200101600168C2F2000501F020010A91A4
:101BF0000A99016849F6404241F004010160016818
:101C000001F004010A910A99016841F0080101609C
:101C1000006840F6000100F008000A900A98C4F23B
:101C20000001284640F8081F2321C0E90114802143
:101C3000CDE90444CDE90F44CDE90D44C0E90324C6
:101C40008161FFF7C5FE28B1EFF3108072B600BFC7
:101C5000FEE700BF05F1080404A92046FFF758FD80
:101C600020B1EFF3108072B6FEE700BF60200A904B
:101C70000020CDE90B000E900AA920460022FFF7B4
:101C8000ADFD28B1EFF3108072B600BFFEE700BFD4
:101C90000AA920460422FFF7A1FD28B1EFF3108026
:101CA00072B600BFFEE700BF0AA920460822FFF770
:101CB00095FD28B1EFF3108072B600BFFEE700BFBC
:101CC0000AA920460C22FFF789FD28B1EFF3108006
:101CD00072B600BFFEE700BF2046FFF757FDFFF7D3
:101CE00009FF40F2C004C2F200042046FEF7B0FE35
:101CF000FEF70AFB2046FEF7ABFE20464FF47A7152
:101D0000FEF772FD2046FEF701FC28602046FEF734
:101D100005FF0A20FEF742FFFEF70CFB2046FEF708
:101D200097FE20464FF47A71FEF75EFD2046FEF7DF
:101D3000EDFB68602046FEF7F1FE0A20FEF72EFF5D
:101D4000D6E70102000000000000000001020304C9
:101D5000060708090000000001020304020304054D
:101D6000060708090A0B0C0D0E0F1010901D000835
:101D7000000000201000000028010008A01D00083D
:101D800010000020E80600004401000800000000E8
:101D900001000000100000000024F400000000001A
:04000005080000ED02
:00000001FF
